{
  "_format": "hh-sol-artifact-1",
  "contractName": "PriceOracle",
  "sourceName": "contracts/PriceOracle.sol",
  "abi": [
    {
      "inputs": [],
      "stateMutability": "nonpayable",
      "type": "constructor"
    },
    {
      "inputs": [],
      "name": "getLatestETHUSDTPrice",
      "outputs": [
        {
          "internalType": "uint256",
          "name": "",
          "type": "uint256"
        }
      ],
      "stateMutability": "view",
      "type": "function"
    }
  ],
  "bytecode": "0x608060405234801561001057600080fd5b5073cd2a119bd1f7df95d706de6f2057fdd45a0503e26000806101000a81548173ffffffffffffffffffffffffffffffffffffffff021916908373ffffffffffffffffffffffffffffffffffffffff16021790555073cd2a119bd1f7df95d706de6f2057fdd45a0503e2600160006101000a81548173ffffffffffffffffffffffffffffffffffffffff021916908373ffffffffffffffffffffffffffffffffffffffff160217905550610400806100c96000396000f3fe608060405234801561001057600080fd5b506004361061002b5760003560e01c80635a74040814610030575b600080fd5b61003861004e565b60405161004591906101ba565b60405180910390f35b60008060008054906101000a900473ffffffffffffffffffffffffffffffffffffffff1673ffffffffffffffffffffffffffffffffffffffff1663feaf968c6040518163ffffffff1660e01b815260040160a060405180830381865afa1580156100bc573d6000803e3d6000fd5b505050506040513d601f19601f820116820180604052508101906100e0919061027e565b5050509150506000600160009054906101000a900473ffffffffffffffffffffffffffffffffffffffff1673ffffffffffffffffffffffffffffffffffffffff1663feaf968c6040518163ffffffff1660e01b815260040160a060405180830381865afa158015610155573d6000803e3d6000fd5b505050506040513d601f19601f82011682018060405250810190610179919061027e565b505050915050806305f5e100836101909190610328565b61019a9190610399565b9250505090565b6000819050919050565b6101b4816101a1565b82525050565b60006020820190506101cf60008301846101ab565b92915050565b600080fd5b600069ffffffffffffffffffff82169050919050565b6101f9816101da565b811461020457600080fd5b50565b600081519050610216816101f0565b92915050565b6000819050919050565b61022f8161021c565b811461023a57600080fd5b50565b60008151905061024c81610226565b92915050565b61025b816101a1565b811461026657600080fd5b50565b60008151905061027881610252565b92915050565b600080600080600060a0868803121561029a576102996101d5565b5b60006102a888828901610207565b95505060206102b98882890161023d565b94505060406102ca88828901610269565b93505060606102db88828901610269565b92505060806102ec88828901610207565b9150509295509295909350565b7f4e487b7100000000000000000000000000000000000000000000000000000000600052601160045260246000fd5b6000610333826101a1565b915061033e836101a1565b925082820261034c816101a1565b91508282048414831517610363576103626102f9565b5b5092915050565b7f4e487b7100000000000000000000000000000000000000000000000000000000600052601260045260246000fd5b60006103a4826101a1565b91506103af836101a1565b9250826103bf576103be61036a565b5b82820490509291505056fea2646970667358221220940b2a02469122eb9a8e418115081bac0c3e48eef06b767eb29ea30b81f864d864736f6c63430008130033",
  "linkReferences": {},
  "deployedLinkReferences": {}
}