{
  "_format": "hh-sol-artifact-1",
  "contractName": "MicroLendingPlatform",
  "sourceName": "contracts/MicroLendingPlatform.sol",
  "abi": [
    {
      "inputs": [
        {
          "internalType": "address",
          "name": "_lendingToken",
          "type": "address"
        },
        {
          "internalType": "address",
          "name": "_priceOracle",
          "type": "address"
        }
      ],
      "stateMutability": "nonpayable",
      "type": "constructor"
    },
    {
      "anonymous": false,
      "inputs": [
        {
          "indexed": false,
          "internalType": "uint256",
          "name": "loanId",
          "type": "uint256"
        },
        {
          "indexed": false,
          "internalType": "uint256",
          "name": "amount",
          "type": "uint256"
        }
      ],
      "name": "InsurancePaid",
      "type": "event"
    },
    {
      "anonymous": false,
      "inputs": [
        {
          "indexed": false,
          "internalType": "uint256",
          "name": "loanId",
          "type": "uint256"
        }
      ],
      "name": "LoanApproved",
      "type": "event"
    },
    {
      "anonymous": false,
      "inputs": [
        {
          "indexed": false,
          "internalType": "uint256",
          "name": "loanId",
          "type": "uint256"
        }
      ],
      "name": "LoanDefaulted",
      "type": "event"
    },
    {
      "anonymous": false,
      "inputs": [
        {
          "indexed": false,
          "internalType": "uint256",
          "name": "loanId",
          "type": "uint256"
        }
      ],
      "name": "LoanRepaid",
      "type": "event"
    },
    {
      "anonymous": false,
      "inputs": [
        {
          "indexed": false,
          "internalType": "uint256",
          "name": "loanId",
          "type": "uint256"
        },
        {
          "indexed": false,
          "internalType": "address",
          "name": "borrower",
          "type": "address"
        },
        {
          "indexed": false,
          "internalType": "uint256",
          "name": "amount",
          "type": "uint256"
        }
      ],
      "name": "LoanRequested",
      "type": "event"
    },
    {
      "anonymous": false,
      "inputs": [
        {
          "indexed": true,
          "internalType": "bytes32",
          "name": "role",
          "type": "bytes32"
        },
        {
          "indexed": true,
          "internalType": "bytes32",
          "name": "previousAdminRole",
          "type": "bytes32"
        },
        {
          "indexed": true,
          "internalType": "bytes32",
          "name": "newAdminRole",
          "type": "bytes32"
        }
      ],
      "name": "RoleAdminChanged",
      "type": "event"
    },
    {
      "anonymous": false,
      "inputs": [
        {
          "indexed": true,
          "internalType": "bytes32",
          "name": "role",
          "type": "bytes32"
        },
        {
          "indexed": true,
          "internalType": "address",
          "name": "account",
          "type": "address"
        },
        {
          "indexed": true,
          "internalType": "address",
          "name": "sender",
          "type": "address"
        }
      ],
      "name": "RoleGranted",
      "type": "event"
    },
    {
      "anonymous": false,
      "inputs": [
        {
          "indexed": true,
          "internalType": "bytes32",
          "name": "role",
          "type": "bytes32"
        },
        {
          "indexed": true,
          "internalType": "address",
          "name": "account",
          "type": "address"
        },
        {
          "indexed": true,
          "internalType": "address",
          "name": "sender",
          "type": "address"
        }
      ],
      "name": "RoleRevoked",
      "type": "event"
    },
    {
      "inputs": [],
      "name": "DAO_MEMBER_ROLE",
      "outputs": [
        {
          "internalType": "bytes32",
          "name": "",
          "type": "bytes32"
        }
      ],
      "stateMutability": "view",
      "type": "function"
    },
    {
      "inputs": [],
      "name": "DEFAULT_ADMIN_ROLE",
      "outputs": [
        {
          "internalType": "bytes32",
          "name": "",
          "type": "bytes32"
        }
      ],
      "stateMutability": "view",
      "type": "function"
    },
    {
      "inputs": [
        {
          "internalType": "uint256",
          "name": "loanId",
          "type": "uint256"
        }
      ],
      "name": "approveLoan",
      "outputs": [],
      "stateMutability": "nonpayable",
      "type": "function"
    },
    {
      "inputs": [
        {
          "internalType": "uint256",
          "name": "",
          "type": "uint256"
        },
        {
          "internalType": "address",
          "name": "",
          "type": "address"
        }
      ],
      "name": "daoVotes",
      "outputs": [
        {
          "internalType": "bool",
          "name": "",
          "type": "bool"
        }
      ],
      "stateMutability": "view",
      "type": "function"
    },
    {
      "inputs": [],
      "name": "getInsurancePoolInfo",
      "outputs": [
        {
          "components": [
            {
              "internalType": "uint256",
              "name": "balance",
              "type": "uint256"
            },
            {
              "internalType": "uint256",
              "name": "feePercentage",
              "type": "uint256"
            },
            {
              "internalType": "uint256",
              "name": "maxCoveragePercentage",
              "type": "uint256"
            }
          ],
          "internalType": "struct MicroLendingPlatform.InsurancePool",
          "name": "",
          "type": "tuple"
        }
      ],
      "stateMutability": "view",
      "type": "function"
    },
    {
      "inputs": [
        {
          "internalType": "bytes32",
          "name": "role",
          "type": "bytes32"
        }
      ],
      "name": "getRoleAdmin",
      "outputs": [
        {
          "internalType": "bytes32",
          "name": "",
          "type": "bytes32"
        }
      ],
      "stateMutability": "view",
      "type": "function"
    },
    {
      "inputs": [
        {
          "internalType": "bytes32",
          "name": "role",
          "type": "bytes32"
        },
        {
          "internalType": "address",
          "name": "account",
          "type": "address"
        }
      ],
      "name": "grantRole",
      "outputs": [],
      "stateMutability": "nonpayable",
      "type": "function"
    },
    {
      "inputs": [
        {
          "internalType": "bytes32",
          "name": "role",
          "type": "bytes32"
        },
        {
          "internalType": "address",
          "name": "account",
          "type": "address"
        }
      ],
      "name": "hasRole",
      "outputs": [
        {
          "internalType": "bool",
          "name": "",
          "type": "bool"
        }
      ],
      "stateMutability": "view",
      "type": "function"
    },
    {
      "inputs": [],
      "name": "insurancePool",
      "outputs": [
        {
          "internalType": "uint256",
          "name": "balance",
          "type": "uint256"
        },
        {
          "internalType": "uint256",
          "name": "feePercentage",
          "type": "uint256"
        },
        {
          "internalType": "uint256",
          "name": "maxCoveragePercentage",
          "type": "uint256"
        }
      ],
      "stateMutability": "view",
      "type": "function"
    },
    {
      "inputs": [],
      "name": "lendingToken",
      "outputs": [
        {
          "internalType": "contract IERC20",
          "name": "",
          "type": "address"
        }
      ],
      "stateMutability": "view",
      "type": "function"
    },
    {
      "inputs": [],
      "name": "loanCount",
      "outputs": [
        {
          "internalType": "uint256",
          "name": "",
          "type": "uint256"
        }
      ],
      "stateMutability": "view",
      "type": "function"
    },
    {
      "inputs": [
        {
          "internalType": "uint256",
          "name": "",
          "type": "uint256"
        }
      ],
      "name": "loans",
      "outputs": [
        {
          "internalType": "address",
          "name": "borrower",
          "type": "address"
        },
        {
          "internalType": "uint256",
          "name": "amount",
          "type": "uint256"
        },
        {
          "internalType": "uint256",
          "name": "dueDate",
          "type": "uint256"
        },
        {
          "internalType": "uint256",
          "name": "interestRate",
          "type": "uint256"
        },
        {
          "internalType": "bool",
          "name": "approved",
          "type": "bool"
        },
        {
          "internalType": "bool",
          "name": "repaid",
          "type": "bool"
        },
        {
          "internalType": "bool",
          "name": "defaulted",
          "type": "bool"
        },
        {
          "internalType": "uint256",
          "name": "creditScore",
          "type": "uint256"
        }
      ],
      "stateMutability": "view",
      "type": "function"
    },
    {
      "inputs": [
        {
          "internalType": "uint256",
          "name": "loanId",
          "type": "uint256"
        }
      ],
      "name": "markLoanAsDefaulted",
      "outputs": [],
      "stateMutability": "nonpayable",
      "type": "function"
    },
    {
      "inputs": [],
      "name": "priceOracle",
      "outputs": [
        {
          "internalType": "contract PriceOracle",
          "name": "",
          "type": "address"
        }
      ],
      "stateMutability": "view",
      "type": "function"
    },
    {
      "inputs": [
        {
          "internalType": "bytes32",
          "name": "role",
          "type": "bytes32"
        },
        {
          "internalType": "address",
          "name": "account",
          "type": "address"
        }
      ],
      "name": "renounceRole",
      "outputs": [],
      "stateMutability": "nonpayable",
      "type": "function"
    },
    {
      "inputs": [
        {
          "internalType": "uint256",
          "name": "loanId",
          "type": "uint256"
        }
      ],
      "name": "repayLoan",
      "outputs": [],
      "stateMutability": "nonpayable",
      "type": "function"
    },
    {
      "inputs": [
        {
          "internalType": "uint256",
          "name": "amountInETH",
          "type": "uint256"
        },
        {
          "internalType": "uint256",
          "name": "creditScore",
          "type": "uint256"
        }
      ],
      "name": "requestLoan",
      "outputs": [
        {
          "internalType": "uint256",
          "name": "",
          "type": "uint256"
        }
      ],
      "stateMutability": "nonpayable",
      "type": "function"
    },
    {
      "inputs": [
        {
          "internalType": "bytes32",
          "name": "role",
          "type": "bytes32"
        },
        {
          "internalType": "address",
          "name": "account",
          "type": "address"
        }
      ],
      "name": "revokeRole",
      "outputs": [],
      "stateMutability": "nonpayable",
      "type": "function"
    },
    {
      "inputs": [
        {
          "internalType": "bytes4",
          "name": "interfaceId",
          "type": "bytes4"
        }
      ],
      "name": "supportsInterface",
      "outputs": [
        {
          "internalType": "bool",
          "name": "",
          "type": "bool"
        }
      ],
      "stateMutability": "view",
      "type": "function"
    },
    {
      "inputs": [
        {
          "internalType": "uint256",
          "name": "_feePercentage",
          "type": "uint256"
        },
        {
          "internalType": "uint256",
          "name": "_maxCoveragePercentage",
          "type": "uint256"
        }
      ],
      "name": "updateInsuranceParams",
      "outputs": [],
      "stateMutability": "nonpayable",
      "type": "function"
    },
    {
      "inputs": [
        {
          "internalType": "uint256",
          "name": "loanId",
          "type": "uint256"
        },
        {
          "internalType": "bool",
          "name": "approve",
          "type": "bool"
        }
      ],
      "name": "voteLoan",
      "outputs": [],
      "stateMutability": "nonpayable",
      "type": "function"
    }
  ],
  "bytecode": "0x60806040523480156200001157600080fd5b5060405162002beb38038062002beb83398181016040528101906200003791906200031d565b6001808190555080600260006101000a81548173ffffffffffffffffffffffffffffffffffffffff021916908373ffffffffffffffffffffffffffffffffffffffff16021790555081600360006101000a81548173ffffffffffffffffffffffffffffffffffffffff021916908373ffffffffffffffffffffffffffffffffffffffff160217905550620000d56000801b336200015060201b60201c565b620001077ff29a78c020ddf311f61483cfe182d6d833b80b74c6044ef77e24d033c4266a4c336200015060201b60201c565b6040518060600160405280600081526020016002815260200160328152506007600082015181600001556020820151816001015560408201518160020155905050505062000364565b6200016282826200024160201b60201c565b6200023d57600160008084815260200190815260200160002060000160008373ffffffffffffffffffffffffffffffffffffffff1673ffffffffffffffffffffffffffffffffffffffff16815260200190815260200160002060006101000a81548160ff021916908315150217905550620001e2620002ab60201b60201c565b73ffffffffffffffffffffffffffffffffffffffff168173ffffffffffffffffffffffffffffffffffffffff16837f2f8788117e7eff1d82e926ec794901d17c78024a50270940304540a733656f0d60405160405180910390a45b5050565b600080600084815260200190815260200160002060000160008373ffffffffffffffffffffffffffffffffffffffff1673ffffffffffffffffffffffffffffffffffffffff16815260200190815260200160002060009054906101000a900460ff16905092915050565b600033905090565b600080fd5b600073ffffffffffffffffffffffffffffffffffffffff82169050919050565b6000620002e582620002b8565b9050919050565b620002f781620002d8565b81146200030357600080fd5b50565b6000815190506200031781620002ec565b92915050565b60008060408385031215620003375762000336620002b3565b5b6000620003478582860162000306565b92505060206200035a8582860162000306565b9150509250929050565b61287780620003746000396000f3fe608060405234801561001057600080fd5b50600436106101375760003560e01c806391d14854116100b8578063aadc1ac11161007c578063aadc1ac11461034e578063ab2adc001461036a578063ab7b1c891461038a578063ce63094d146103a6578063d547741f146103c4578063e1ec3c68146103e057610137565b806391d14854146102945780639d0a2450146102c4578063a217fddf146102e2578063aa452fa614610300578063aaaca5581461033057610137565b806336568abe116100ff57806336568abe146101f457806341b8811114610210578063637a3cd01461022c57806378640668146102485780637f74714b1461027857610137565b806301ffc9a71461013c578063248a9ca31461016c5780632630c12f1461019c57806327543a9a146101ba5780632f2ff15d146101d8575b600080fd5b6101566004803603810190610151919061197e565b610417565b60405161016391906119c6565b60405180910390f35b61018660048036038101906101819190611a17565b610491565b6040516101939190611a53565b60405180910390f35b6101a46104b0565b6040516101b19190611aed565b60405180910390f35b6101c26104d6565b6040516101cf9190611a53565b60405180910390f35b6101f260048036038101906101ed9190611b46565b6104fa565b005b61020e60048036038101906102099190611b46565b61051b565b005b61022a60048036038101906102259190611bbc565b61059e565b005b61024660048036038101906102419190611c15565b6108ab565b005b610262600480360381019061025d9190611c55565b6109a6565b60405161026f91906119c6565b60405180910390f35b610292600480360381019061028d9190611c95565b6109d5565b005b6102ae60048036038101906102a99190611b46565b610a83565b6040516102bb91906119c6565b60405180910390f35b6102cc610aed565b6040516102d99190611d26565b60405180910390f35b6102ea610b25565b6040516102f79190611a53565b60405180910390f35b61031a60048036038101906103159190611c95565b610b2c565b6040516103279190611d50565b60405180910390f35b610338610dda565b6040516103459190611d8c565b60405180910390f35b61036860048036038101906103639190611bbc565b610e00565b005b610372611056565b60405161038193929190611da7565b60405180910390f35b6103a4600480360381019061039f9190611bbc565b61106e565b005b6103ae61128f565b6040516103bb9190611d50565b60405180910390f35b6103de60048036038101906103d99190611b46565b611295565b005b6103fa60048036038101906103f59190611bbc565b6112b6565b60405161040e989796959493929190611ded565b60405180910390f35b60007f7965db0b000000000000000000000000000000000000000000000000000000007bffffffffffffffffffffffffffffffffffffffffffffffffffffffff1916827bffffffffffffffffffffffffffffffffffffffffffffffffffffffff1916148061048a575061048982611345565b5b9050919050565b6000806000838152602001908152602001600020600101549050919050565b600260009054906101000a900473ffffffffffffffffffffffffffffffffffffffff1681565b7ff29a78c020ddf311f61483cfe182d6d833b80b74c6044ef77e24d033c4266a4c81565b61050382610491565b61050c816113af565b61051683836113c3565b505050565b6105236114a3565b73ffffffffffffffffffffffffffffffffffffffff168173ffffffffffffffffffffffffffffffffffffffff1614610590576040517f08c379a000000000000000000000000000000000000000000000000000000000815260040161058790611eee565b60405180910390fd5b61059a82826114ab565b5050565b7ff29a78c020ddf311f61483cfe182d6d833b80b74c6044ef77e24d033c4266a4c6105c8816113af565b60006004600084815260200190815260200160002090508060040160009054906101000a900460ff16801561060c57508060040160019054906101000a900460ff16155b801561062757508060040160029054906101000a900460ff16155b610666576040517f08c379a000000000000000000000000000000000000000000000000000000000815260040161065d90611f5a565b60405180910390fd5b806002015442116106ac576040517f08c379a00000000000000000000000000000000000000000000000000000000081526004016106a390611fc6565b60405180910390fd5b60018160040160026101000a81548160ff0219169083151502179055506000606460076002015483600101546106e29190612015565b6106ec9190612086565b9050600060076000015482116107025781610709565b6007600001545b9050600081111561086d57806007600001600082825461072991906120b7565b92505081905550600360009054906101000a900473ffffffffffffffffffffffffffffffffffffffff1673ffffffffffffffffffffffffffffffffffffffff1663a9059cbb8460000160009054906101000a900473ffffffffffffffffffffffffffffffffffffffff16836040518363ffffffff1660e01b81526004016107b19291906120eb565b6020604051808303816000875af11580156107d0573d6000803e3d6000fd5b505050506040513d601f19601f820116820180604052508101906107f49190612129565b610833576040517f08c379a000000000000000000000000000000000000000000000000000000000815260040161082a906121a2565b60405180910390fd5b7f4c6689e32fad22a4404d6f9e662b4a93e40c16bdcb9d52916b05825be7c2d20c85826040516108649291906121c2565b60405180910390a15b7f0789b7097e8066538cfaa1132488b132e14ba5f0c938c8b7aaf8cf40356aab0b8560405161089c9190611d50565b60405180910390a15050505050565b7ff29a78c020ddf311f61483cfe182d6d833b80b74c6044ef77e24d033c4266a4c6108d5816113af565b6004600084815260200190815260200160002060040160009054906101000a900460ff1615610939576040517f08c379a000000000000000000000000000000000000000000000000000000000815260040161093090612237565b60405180910390fd5b816005600085815260200190815260200160002060003373ffffffffffffffffffffffffffffffffffffffff1673ffffffffffffffffffffffffffffffffffffffff16815260200190815260200160002060006101000a81548160ff021916908315150217905550505050565b60056020528160005260406000206020528060005260406000206000915091509054906101000a900460ff1681565b6000801b6109e2816113af565b6005831115610a26576040517f08c379a0000000000000000000000000000000000000000000000000000000008152600401610a1d906122a3565b60405180910390fd5b6050821115610a6a576040517f08c379a0000000000000000000000000000000000000000000000000000000008152600401610a619061230f565b60405180910390fd5b8260076001018190555081600760020181905550505050565b600080600084815260200190815260200160002060000160008373ffffffffffffffffffffffffffffffffffffffff1673ffffffffffffffffffffffffffffffffffffffff16815260200190815260200160002060009054906101000a900460ff16905092915050565b610af5611900565b60076040518060600160405290816000820154815260200160018201548152602001600282015481525050905090565b6000801b81565b600080600260009054906101000a900473ffffffffffffffffffffffffffffffffffffffff1673ffffffffffffffffffffffffffffffffffffffff16635a7404086040518163ffffffff1660e01b8152600401602060405180830381865afa158015610b9c573d6000803e3d6000fd5b505050506040513d601f19601f82011682018060405250810190610bc09190612344565b905060006305f5e1008286610bd59190612015565b610bdf9190612086565b905060008111610c24576040517f08c379a0000000000000000000000000000000000000000000000000000000008152600401610c1b906123bd565b60405180910390fd5b600060066000815480929190610c39906123dd565b9190505590506040518061010001604052803373ffffffffffffffffffffffffffffffffffffffff16815260200183815260200162278d0042610c7c9190612425565b8152602001610c8a8761158c565b8152602001600015158152602001600015158152602001600015158152602001868152506004600083815260200190815260200160002060008201518160000160006101000a81548173ffffffffffffffffffffffffffffffffffffffff021916908373ffffffffffffffffffffffffffffffffffffffff16021790555060208201518160010155604082015181600201556060820151816003015560808201518160040160006101000a81548160ff02191690831515021790555060a08201518160040160016101000a81548160ff02191690831515021790555060c08201518160040160026101000a81548160ff02191690831515021790555060e082015181600501559050507f97e04be2fd6414727fe9d0400464568f4384aa8b06264119565ca8f6cc2a4b7a813384604051610dc693929190612459565b60405180910390a180935050505092915050565b600360009054906101000a900473ffffffffffffffffffffffffffffffffffffffff1681565b7ff29a78c020ddf311f61483cfe182d6d833b80b74c6044ef77e24d033c4266a4c610e2a816113af565b610e326115ba565b60006004600084815260200190815260200160002090508060040160009054906101000a900460ff1615610e9b576040517f08c379a0000000000000000000000000000000000000000000000000000000008152600401610e9290612237565b60405180910390fd5b60018160040160006101000a81548160ff021916908315150217905550600060646007600101548360010154610ed19190612015565b610edb9190612086565b90506000818360010154610eef91906120b7565b9050600360009054906101000a900473ffffffffffffffffffffffffffffffffffffffff1673ffffffffffffffffffffffffffffffffffffffff1663a9059cbb8460000160009054906101000a900473ffffffffffffffffffffffffffffffffffffffff16836040518363ffffffff1660e01b8152600401610f729291906120eb565b6020604051808303816000875af1158015610f91573d6000803e3d6000fd5b505050506040513d601f19601f82011682018060405250810190610fb59190612129565b610ff4576040517f08c379a0000000000000000000000000000000000000000000000000000000008152600401610feb906124dc565b60405180910390fd5b81600760000160008282546110099190612425565b925050819055507f073e754af3e7d644af8000094f3c23bc20ef9c40cc057bffa060b0230adf00f48560405161103f9190611d50565b60405180910390a1505050611052611609565b5050565b60078060000154908060010154908060020154905083565b6110766115ba565b60006004600083815260200190815260200160002090508060040160009054906101000a900460ff1680156110ba57508060040160019054906101000a900460ff16155b80156110d557508060040160029054906101000a900460ff16155b611114576040517f08c379a000000000000000000000000000000000000000000000000000000000815260040161110b90611f5a565b60405180910390fd5b600060648260030154836001015461112c9190612015565b6111369190612086565b9050600081836001015461114a9190612425565b9050600360009054906101000a900473ffffffffffffffffffffffffffffffffffffffff1673ffffffffffffffffffffffffffffffffffffffff166323b872dd3330846040518463ffffffff1660e01b81526004016111ab939291906124fc565b6020604051808303816000875af11580156111ca573d6000803e3d6000fd5b505050506040513d601f19601f820116820180604052508101906111ee9190612129565b61122d576040517f08c379a0000000000000000000000000000000000000000000000000000000008152600401611224906124dc565b60405180910390fd5b60018360040160016101000a81548160ff0219169083151502179055507f9a7851747cd7ffb3fe0a32caf3da48b31f27cebe131267051640f8b72fc47186846040516112799190611d50565b60405180910390a150505061128c611609565b50565b60065481565b61129e82610491565b6112a7816113af565b6112b183836114ab565b505050565b60046020528060005260406000206000915090508060000160009054906101000a900473ffffffffffffffffffffffffffffffffffffffff16908060010154908060020154908060030154908060040160009054906101000a900460ff16908060040160019054906101000a900460ff16908060040160029054906101000a900460ff16908060050154905088565b60007f01ffc9a7000000000000000000000000000000000000000000000000000000007bffffffffffffffffffffffffffffffffffffffffffffffffffffffff1916827bffffffffffffffffffffffffffffffffffffffffffffffffffffffff1916149050919050565b6113c0816113bb6114a3565b611612565b50565b6113cd8282610a83565b61149f57600160008084815260200190815260200160002060000160008373ffffffffffffffffffffffffffffffffffffffff1673ffffffffffffffffffffffffffffffffffffffff16815260200190815260200160002060006101000a81548160ff0219169083151502179055506114446114a3565b73ffffffffffffffffffffffffffffffffffffffff168173ffffffffffffffffffffffffffffffffffffffff16837f2f8788117e7eff1d82e926ec794901d17c78024a50270940304540a733656f0d60405160405180910390a45b5050565b600033905090565b6114b58282610a83565b1561158857600080600084815260200190815260200160002060000160008373ffffffffffffffffffffffffffffffffffffffff1673ffffffffffffffffffffffffffffffffffffffff16815260200190815260200160002060006101000a81548160ff02191690831515021790555061152d6114a3565b73ffffffffffffffffffffffffffffffffffffffff168173ffffffffffffffffffffffffffffffffffffffff16837ff6391f5c32d9c69d2a47ea670b442974b53935d1edc7fd64eb21e047a839171b60405160405180910390a45b5050565b60006050821061159f57600590506115b5565b603c82106115b057600a90506115b5565b600f90505b919050565b6002600154036115ff576040517f08c379a00000000000000000000000000000000000000000000000000000000081526004016115f69061257f565b60405180910390fd5b6002600181905550565b60018081905550565b61161c8282610a83565b6116935761162981611697565b6116378360001c60206116c4565b6040516020016116489291906126a8565b6040516020818303038152906040526040517f08c379a000000000000000000000000000000000000000000000000000000000815260040161168a919061272c565b60405180910390fd5b5050565b60606116bd8273ffffffffffffffffffffffffffffffffffffffff16601460ff166116c4565b9050919050565b6060600060028360026116d79190612015565b6116e19190612425565b67ffffffffffffffff8111156116fa576116f961274e565b5b6040519080825280601f01601f19166020018201604052801561172c5781602001600182028036833780820191505090505b5090507f3000000000000000000000000000000000000000000000000000000000000000816000815181106117645761176361277d565b5b60200101907effffffffffffffffffffffffffffffffffffffffffffffffffffffffffffff1916908160001a9053507f7800000000000000000000000000000000000000000000000000000000000000816001815181106117c8576117c761277d565b5b60200101907effffffffffffffffffffffffffffffffffffffffffffffffffffffffffffff1916908160001a905350600060018460026118089190612015565b6118129190612425565b90505b60018111156118b2577f3031323334353637383961626364656600000000000000000000000000000000600f8616601081106118545761185361277d565b5b1a60f81b82828151811061186b5761186a61277d565b5b60200101907effffffffffffffffffffffffffffffffffffffffffffffffffffffffffffff1916908160001a905350600485901c9450806118ab906127ac565b9050611815565b50600084146118f6576040517f08c379a00000000000000000000000000000000000000000000000000000000081526004016118ed90612821565b60405180910390fd5b8091505092915050565b60405180606001604052806000815260200160008152602001600081525090565b600080fd5b60007fffffffff0000000000000000000000000000000000000000000000000000000082169050919050565b61195b81611926565b811461196657600080fd5b50565b60008135905061197881611952565b92915050565b60006020828403121561199457611993611921565b5b60006119a284828501611969565b91505092915050565b60008115159050919050565b6119c0816119ab565b82525050565b60006020820190506119db60008301846119b7565b92915050565b6000819050919050565b6119f4816119e1565b81146119ff57600080fd5b50565b600081359050611a11816119eb565b92915050565b600060208284031215611a2d57611a2c611921565b5b6000611a3b84828501611a02565b91505092915050565b611a4d816119e1565b82525050565b6000602082019050611a686000830184611a44565b92915050565b600073ffffffffffffffffffffffffffffffffffffffff82169050919050565b6000819050919050565b6000611ab3611aae611aa984611a6e565b611a8e565b611a6e565b9050919050565b6000611ac582611a98565b9050919050565b6000611ad782611aba565b9050919050565b611ae781611acc565b82525050565b6000602082019050611b026000830184611ade565b92915050565b6000611b1382611a6e565b9050919050565b611b2381611b08565b8114611b2e57600080fd5b50565b600081359050611b4081611b1a565b92915050565b60008060408385031215611b5d57611b5c611921565b5b6000611b6b85828601611a02565b9250506020611b7c85828601611b31565b9150509250929050565b6000819050919050565b611b9981611b86565b8114611ba457600080fd5b50565b600081359050611bb681611b90565b92915050565b600060208284031215611bd257611bd1611921565b5b6000611be084828501611ba7565b91505092915050565b611bf2816119ab565b8114611bfd57600080fd5b50565b600081359050611c0f81611be9565b92915050565b60008060408385031215611c2c57611c2b611921565b5b6000611c3a85828601611ba7565b9250506020611c4b85828601611c00565b9150509250929050565b60008060408385031215611c6c57611c6b611921565b5b6000611c7a85828601611ba7565b9250506020611c8b85828601611b31565b9150509250929050565b60008060408385031215611cac57611cab611921565b5b6000611cba85828601611ba7565b9250506020611ccb85828601611ba7565b9150509250929050565b611cde81611b86565b82525050565b606082016000820151611cfa6000850182611cd5565b506020820151611d0d6020850182611cd5565b506040820151611d206040850182611cd5565b50505050565b6000606082019050611d3b6000830184611ce4565b92915050565b611d4a81611b86565b82525050565b6000602082019050611d656000830184611d41565b92915050565b6000611d7682611aba565b9050919050565b611d8681611d6b565b82525050565b6000602082019050611da16000830184611d7d565b92915050565b6000606082019050611dbc6000830186611d41565b611dc96020830185611d41565b611dd66040830184611d41565b949350505050565b611de781611b08565b82525050565b600061010082019050611e03600083018b611dde565b611e10602083018a611d41565b611e1d6040830189611d41565b611e2a6060830188611d41565b611e3760808301876119b7565b611e4460a08301866119b7565b611e5160c08301856119b7565b611e5e60e0830184611d41565b9998505050505050505050565b600082825260208201905092915050565b7f416363657373436f6e74726f6c3a2063616e206f6e6c792072656e6f756e636560008201527f20726f6c657320666f722073656c660000000000000000000000000000000000602082015250565b6000611ed8602f83611e6b565b9150611ee382611e7c565b604082019050919050565b60006020820190508181036000830152611f0781611ecb565b9050919050565b7f496e76616c6964206c6f616e2073746174650000000000000000000000000000600082015250565b6000611f44601283611e6b565b9150611f4f82611f0e565b602082019050919050565b60006020820190508181036000830152611f7381611f37565b9050919050565b7f4c6f616e206e6f74207965742064756500000000000000000000000000000000600082015250565b6000611fb0601083611e6b565b9150611fbb82611f7a565b602082019050919050565b60006020820190508181036000830152611fdf81611fa3565b9050919050565b7f4e487b7100000000000000000000000000000000000000000000000000000000600052601160045260246000fd5b600061202082611b86565b915061202b83611b86565b925082820261203981611b86565b915082820484148315176120505761204f611fe6565b5b5092915050565b7f4e487b7100000000000000000000000000000000000000000000000000000000600052601260045260246000fd5b600061209182611b86565b915061209c83611b86565b9250826120ac576120ab612057565b5b828204905092915050565b60006120c282611b86565b91506120cd83611b86565b92508282039050818111156120e5576120e4611fe6565b5b92915050565b60006040820190506121006000830185611dde565b61210d6020830184611d41565b9392505050565b60008151905061212381611be9565b92915050565b60006020828403121561213f5761213e611921565b5b600061214d84828501612114565b91505092915050565b7f496e737572616e6365207061796f7574206661696c6564000000000000000000600082015250565b600061218c601783611e6b565b915061219782612156565b602082019050919050565b600060208201905081810360008301526121bb8161217f565b9050919050565b60006040820190506121d76000830185611d41565b6121e46020830184611d41565b9392505050565b7f4c6f616e20616c726561647920617070726f7665640000000000000000000000600082015250565b6000612221601583611e6b565b915061222c826121eb565b602082019050919050565b6000602082019050818103600083015261225081612214565b9050919050565b7f46656520746f6f20686967680000000000000000000000000000000000000000600082015250565b600061228d600c83611e6b565b915061229882612257565b602082019050919050565b600060208201905081810360008301526122bc81612280565b9050919050565b7f436f76657261676520746f6f2068696768000000000000000000000000000000600082015250565b60006122f9601183611e6b565b9150612304826122c3565b602082019050919050565b60006020820190508181036000830152612328816122ec565b9050919050565b60008151905061233e81611b90565b92915050565b60006020828403121561235a57612359611921565b5b60006123688482850161232f565b91505092915050565b7f416d6f756e74206d7573742062652067726561746572207468616e2030000000600082015250565b60006123a7601d83611e6b565b91506123b282612371565b602082019050919050565b600060208201905081810360008301526123d68161239a565b9050919050565b60006123e882611b86565b91507fffffffffffffffffffffffffffffffffffffffffffffffffffffffffffffffff820361241a57612419611fe6565b5b600182019050919050565b600061243082611b86565b915061243b83611b86565b925082820190508082111561245357612452611fe6565b5b92915050565b600060608201905061246e6000830186611d41565b61247b6020830185611dde565b6124886040830184611d41565b949350505050565b7f5472616e73666572206661696c65640000000000000000000000000000000000600082015250565b60006124c6600f83611e6b565b91506124d182612490565b602082019050919050565b600060208201905081810360008301526124f5816124b9565b9050919050565b60006060820190506125116000830186611dde565b61251e6020830185611dde565b61252b6040830184611d41565b949350505050565b7f5265656e7472616e637947756172643a207265656e7472616e742063616c6c00600082015250565b6000612569601f83611e6b565b915061257482612533565b602082019050919050565b600060208201905081810360008301526125988161255c565b9050919050565b600081905092915050565b7f416363657373436f6e74726f6c3a206163636f756e7420000000000000000000600082015250565b60006125e060178361259f565b91506125eb826125aa565b601782019050919050565b600081519050919050565b60005b8381101561261f578082015181840152602081019050612604565b60008484015250505050565b6000612636826125f6565b612640818561259f565b9350612650818560208601612601565b80840191505092915050565b7f206973206d697373696e6720726f6c6520000000000000000000000000000000600082015250565b600061269260118361259f565b915061269d8261265c565b601182019050919050565b60006126b3826125d3565b91506126bf828561262b565b91506126ca82612685565b91506126d6828461262b565b91508190509392505050565b6000601f19601f8301169050919050565b60006126fe826125f6565b6127088185611e6b565b9350612718818560208601612601565b612721816126e2565b840191505092915050565b6000602082019050818103600083015261274681846126f3565b905092915050565b7f4e487b7100000000000000000000000000000000000000000000000000000000600052604160045260246000fd5b7f4e487b7100000000000000000000000000000000000000000000000000000000600052603260045260246000fd5b60006127b782611b86565b9150600082036127ca576127c9611fe6565b5b600182039050919050565b7f537472696e67733a20686578206c656e67746820696e73756666696369656e74600082015250565b600061280b602083611e6b565b9150612816826127d5565b602082019050919050565b6000602082019050818103600083015261283a816127fe565b905091905056fea2646970667358221220115b83fffc13157138d2bfee66e54914ce17b9d1975762b0f5776ec53c489f4364736f6c63430008130033",
  "linkReferences": {},
  "deployedLinkReferences": {}
}